8=FIX.4.2|9=72|35=A|34=52|49=CLIENT1|52=20130504-21:19:47.675|56=ORDERMATCH|98=0|108=5|10=231|
8=FIX.4.2|9=72|35=A|34=52|49=ORDERMATCH|52=20130504-21:19:47.676|56=CLIENT1|98=0|108=5|10=232|
8=FIX.4.2|9=61|35=0|34=53|49=ORDERMATCH|52=20130504-21:19:52.195|56=CLIENT1|10=227|
8=FIX.4.2|9=61|35=0|34=53|49=CLIENT1|52=20130504-21:19:52.195|56=ORDERMATCH|10=227|
8=FIX.4.2|9=61|35=0|34=54|49=ORDERMATCH|52=20130504-21:19:57.202|56=CLIENT1|10=222|
8=FIX.4.2|9=61|35=0|34=54|49=CLIENT1|52=20130504-21:19:57.203|56=ORDERMATCH|10=223|
8=FIX.4.2|9=61|35=0|34=55|49=ORDERMATCH|52=20130504-21:20:02.210|56=CLIENT1|10=204|
8=FIX.4.2|9=61|35=0|34=55|49=CLIENT1|52=20130504-21:20:02.210|56=ORDERMATCH|10=204|
8=FIX.4.2|9=61|35=0|34=56|49=ORDERMATCH|52=20130504-21:20:07.219|56=CLIENT1|10=219|
8=FIX.4.2|9=61|35=0|34=56|49=CLIENT1|52=20130504-21:20:07.220|56=ORDERMATCH|10=211|
8=FIX.4.2|9=61|35=5|34=57|49=ORDERMATCH|52=20130504-21:20:09.706|56=CLIENT1|10=228|
8=FIX.4.2|9=61|35=5|34=57|49=CLIENT1|52=20130504-21:20:09.706|56=ORDERMATCH|10=228|
