

8=FIX.4.2|9=72|35=A|34=52|49=CLIENT1|52=20130404-05:00:00.475|56=ORDERMATCH|98=0|108=1023|10=099|

8=FIX.4.2|9=63|35=0|34=53|49=CLIENT1|52=20130404-05:00:00.475|56=ORDERMATCH|10=215|

8=FIX.4.2|9=64|35=0|34=54|49=CLIENT1|52=20130404-05:00:00.475|56=ORDERMATCH|10=217|

8=FIX.4.2|9=65|35=0|34=55|49=CLIENT1|52=20130404-05:00:00.475|56=ORDERMATCH|10=219|

8=FIX.4.2|9=66|35=0|34=56|49=CLIENT1|52=20130404-05:00:00.475|56=ORDERMATCH|10=221|

8=FIX.4.2|9=67|35=0|34=57|49=CLIENT1|52=20130404-05:00:00.475|56=ORDERMATCH|10=223|

8=FIX.4.2|9=68|35=0|34=58|49=CLIENT1|52=20130404-05:00:00.475|56=ORDERMATCH|10=225|

8=FIX.4.2|9=69|35=0|34=59|49=CLIENT1|52=20130404-05:00:00.475|56=ORDERMATCH|10=227|

8=FIX.4.2|9=60|35=0|34=60|49=CLIENT1|52=20130404-05:00:00.475|56=ORDERMATCH|10=210|

8=FIX.4.2|9=61|35=0|34=61|49=CLIENT1|52=20130404-05:00:00.475|56=ORDERMATCH|10=212|

8=FIX.4.2|9=62|35=5|34=62|49=CLIENT1|52=20130404-05:00:00.475|56=ORDERMATCH|10=219|