

8=FIX.4.2|9=72|35=A|34=52|49=CLIENT1|52=20130404-05:00:00.475|56=ORDERMATCH|98=0|108=1023|10=099|

8=FIX.4.2|9=63|35=0|34=53|49=CLIENT1|52=20130404-05:00:00.475|56=ORDERMATCH|10=215|

8=FIX.4.2|9=64|35=0|34=54|49=CLIENT1|52=20130404-05:00:00.475|56=ORDERMATCH|10=217|

8=FIX.4.2|9=65|35=0|34=55|49=CLIENT1|52=20130404-05:00:00.475|56=ORDERMATCH|10=219|

8=FIX.4.2|9=66|35=0|34=56|49=CLIENT1|52=20130404-05:00:00.475|56=ORDERMATCH|10=221|

8=FIX.4.2|9=67|35=0|34=57|49=CLIENT1|52=20130404-05:00:00.475|56=ORDERMATCH|10=223|

8=FIX.4.2|9=68|35=0|34=58|49=CLIENT1|52=20130404-05:00:00.475|56=ORDERMATCH|10=225|

8=FIX.4.2|9=69|35=0|34=59|49=CLIENT1|52=20130404-05:00:00.475|56=ORDERMATCH|10=227|

8=FIX.4.2|9=60|35=0|34=60|49=CLIENT1|52=20130404-05:00:00.475|56=ORDERMATCH|10=210|

8=FIX.4.2|9=61|35=0|34=61|49=CLIENT1|52=20130404-05:00:00.475|56=ORDERMATCH|10=212|

8=FIX.4.2|9=62|35=0|34=62|49=CLIENT1|52=20130404-05:00:00.475|56=ORDERMATCH|10=214|

8=FIX.4.2|9=63|35=0|34=63|49=CLIENT1|52=20130404-05:00:00.475|56=ORDERMATCH|10=216|

8=FIX.4.2|9=64|35=0|34=64|49=CLIENT1|52=20130404-05:00:00.475|56=ORDERMATCH|10=218|

8=FIX.4.2|9=65|35=0|34=65|49=CLIENT1|52=20130404-05:00:00.475|56=ORDERMATCH|10=220|

8=FIX.4.2|9=66|35=0|34=66|49=CLIENT1|52=20130404-05:00:00.475|56=ORDERMATCH|10=222|

8=FIX.4.2|9=67|35=0|34=67|49=CLIENT1|52=20130404-05:00:00.475|56=ORDERMATCH|10=224|

8=FIX.4.2|9=68|35=0|34=68|49=CLIENT1|52=20130404-05:00:00.475|56=ORDERMATCH|10=226|

8=FIX.4.2|9=69|35=0|34=69|49=CLIENT1|52=20130404-05:00:00.475|56=ORDERMATCH|10=228|

8=FIX.4.2|9=60|35=0|34=70|49=CLIENT1|52=20130404-05:00:00.475|56=ORDERMATCH|10=211|

8=FIX.4.2|9=61|35=0|34=71|49=CLIENT1|52=20130404-05:00:00.475|56=ORDERMATCH|10=213|

8=FIX.4.2|9=62|35=0|34=72|49=CLIENT1|52=20130404-05:00:00.475|56=ORDERMATCH|10=215|

8=FIX.4.2|9=63|35=0|34=73|49=CLIENT1|52=20130404-05:00:00.475|56=ORDERMATCH|10=217|

8=FIX.4.2|9=64|35=0|34=74|49=CLIENT1|52=20130404-05:00:00.475|56=ORDERMATCH|10=219|

8=FIX.4.2|9=65|35=0|34=75|49=CLIENT1|52=20130404-05:00:00.475|56=ORDERMATCH|10=221|

8=FIX.4.2|9=66|35=0|34=76|49=CLIENT1|52=20130404-05:00:00.475|56=ORDERMATCH|10=223|

8=FIX.4.2|9=67|35=0|34=77|49=CLIENT1|52=20130404-05:00:00.475|56=ORDERMATCH|10=225|

8=FIX.4.2|9=68|35=0|34=78|49=CLIENT1|52=20130404-05:00:00.475|56=ORDERMATCH|10=227|

8=FIX.4.2|9=69|35=0|34=79|49=CLIENT1|52=20130404-05:00:00.475|56=ORDERMATCH|10=229|

8=FIX.4.2|9=60|35=0|34=80|49=CLIENT1|52=20130404-05:00:00.475|56=ORDERMATCH|10=212|

8=FIX.4.2|9=61|35=0|34=81|49=CLIENT1|52=20130404-05:00:00.475|56=ORDERMATCH|10=214|

8=FIX.4.2|9=62|35=0|34=82|49=CLIENT1|52=20130404-05:00:00.475|56=ORDERMATCH|10=216|

8=FIX.4.2|9=63|35=0|34=83|49=CLIENT1|52=20130404-05:00:00.475|56=ORDERMATCH|10=218|

8=FIX.4.2|9=64|35=0|34=84|49=CLIENT1|52=20130404-05:00:00.475|56=ORDERMATCH|10=220|

8=FIX.4.2|9=65|35=0|34=85|49=CLIENT1|52=20130404-05:00:00.475|56=ORDERMATCH|10=222|

8=FIX.4.2|9=66|35=0|34=86|49=CLIENT1|52=20130404-05:00:00.475|56=ORDERMATCH|10=224|

8=FIX.4.2|9=67|35=0|34=87|49=CLIENT1|52=20130404-05:00:00.475|56=ORDERMATCH|10=226|

8=FIX.4.2|9=68|35=0|34=88|49=CLIENT1|52=20130404-05:00:00.475|56=ORDERMATCH|10=228|

8=FIX.4.2|9=69|35=0|34=89|49=CLIENT1|52=20130404-05:00:00.475|56=ORDERMATCH|10=230|

8=FIX.4.2|9=60|35=0|34=90|49=CLIENT1|52=20130404-05:00:00.475|56=ORDERMATCH|10=213|

8=FIX.4.2|9=61|35=0|34=91|49=CLIENT1|52=20130404-05:00:00.475|56=ORDERMATCH|10=215|

8=FIX.4.2|9=62|35=0|34=92|49=CLIENT1|52=20130404-05:00:00.475|56=ORDERMATCH|10=217|

8=FIX.4.2|9=63|35=0|34=93|49=CLIENT1|52=20130404-05:00:00.475|56=ORDERMATCH|10=219|

8=FIX.4.2|9=64|35=0|34=94|49=CLIENT1|52=20130404-05:00:00.475|56=ORDERMATCH|10=221|

8=FIX.4.2|9=65|35=0|34=95|49=CLIENT1|52=20130404-05:00:00.475|56=ORDERMATCH|10=223|

8=FIX.4.2|9=66|35=0|34=96|49=CLIENT1|52=20130404-05:00:00.475|56=ORDERMATCH|10=225|

8=FIX.4.2|9=67|35=0|34=97|49=CLIENT1|52=20130404-05:00:00.475|56=ORDERMATCH|10=227|

8=FIX.4.2|9=68|35=0|34=98|49=CLIENT1|52=20130404-05:00:00.475|56=ORDERMATCH|10=229|

8=FIX.4.2|9=69|35=0|34=99|49=CLIENT1|52=20130404-05:00:00.475|56=ORDERMATCH|10=231|

8=FIX.4.2|9=60|35=0|34=100|49=CLIENT1|52=20130404-05:00:00.475|56=ORDERMATCH|10=253|

8=FIX.4.2|9=60|35=0|34=101|49=CLIENT1|52=20130404-05:00:00.475|56=ORDERMATCH|10=254|

8=FIX.4.2|9=60|35=0|34=102|49=CLIENT1|52=20130404-05:00:00.475|56=ORDERMATCH|10=255|

8=FIX.4.2|9=60|35=0|34=103|49=CLIENT1|52=20130404-05:00:00.475|56=ORDERMATCH|10=000|

8=FIX.4.2|9=60|35=0|34=104|49=CLIENT1|52=20130404-05:00:00.475|56=ORDERMATCH|10=001|

8=FIX.4.2|9=60|35=0|34=105|49=CLIENT1|52=20130404-05:00:00.475|56=ORDERMATCH|10=002|

8=FIX.4.2|9=60|35=0|34=106|49=CLIENT1|52=20130404-05:00:00.475|56=ORDERMATCH|10=003|

8=FIX.4.2|9=60|35=0|34=107|49=CLIENT1|52=20130404-05:00:00.475|56=ORDERMATCH|10=004|

8=FIX.4.2|9=60|35=0|34=108|49=CLIENT1|52=20130404-05:00:00.475|56=ORDERMATCH|10=005|

8=FIX.4.2|9=60|35=0|34=109|49=CLIENT1|52=20130404-05:00:00.475|56=ORDERMATCH|10=006|

8=FIX.4.2|9=61|35=0|34=110|49=CLIENT1|52=20130404-05:00:00.475|56=ORDERMATCH|10=255|

8=FIX.4.2|9=61|35=0|34=111|49=CLIENT1|52=20130404-05:00:00.475|56=ORDERMATCH|10=000|

8=FIX.4.2|9=61|35=0|34=112|49=CLIENT1|52=20130404-05:00:00.475|56=ORDERMATCH|10=001|

8=FIX.4.2|9=61|35=0|34=113|49=CLIENT1|52=20130404-05:00:00.475|56=ORDERMATCH|10=002|

8=FIX.4.2|9=61|35=5|34=114|49=CLIENT1|52=20130404-05:00:00.475|56=ORDERMATCH|10=008|