

8=FIX.4.2|9=72|35=A|34=1|49=CLIENT1|52=20130404-05:00:00.475|56=ORDERMATCH|98=0|108=1023|10=045|

8=FIX.4.2|9=62|35=0|34=2|49=CLIENT1|52=20130404-05:00:00.475|56=ORDERMATCH|10=160|

8=FIX.4.2|9=62|35=0|34=3|49=CLIENT1|52=20130404-05:00:00.475|56=ORDERMATCH|10=161|

8=FIX.4.2|9=62|35=0|34=4|49=CLIENT1|52=20130404-05:00:00.475|56=ORDERMATCH|10=162|

8=FIX.4.2|9=62|35=0|34=5|49=CLIENT1|52=20130404-05:00:00.475|56=ORDERMATCH|10=163|

8=FIX.4.2|9=62|35=0|34=6|49=CLIENT1|52=20130404-05:00:00.475|56=ORDERMATCH|10=164|

8=FIX.4.2|9=62|35=0|34=7|49=CLIENT1|52=20130404-05:00:00.475|56=ORDERMATCH|10=165|

8=FIX.4.2|9=62|35=0|34=8|49=CLIENT1|52=20130404-05:00:00.475|56=ORDERMATCH|10=166|

8=FIX.4.2|9=62|35=0|34=9|49=CLIENT1|52=20130404-05:00:00.475|56=ORDERMATCH|10=167|

8=FIX.4.2|9=62|35=0|34=10|49=CLIENT1|52=20130404-05:00:00.475|56=ORDERMATCH|10=207|

8=FIX.4.2|9=63|35=0|34=11|49=CLIENT1|52=20130404-05:00:00.475|56=ORDERMATCH|10=209|

8=FIX.4.2|9=63|35=0|34=12|49=CLIENT1|52=20130404-05:00:00.475|56=ORDERMATCH|10=210|

8=FIX.4.2|9=63|35=0|34=13|49=CLIENT1|52=20130404-05:00:00.475|56=ORDERMATCH|10=211|

8=FIX.4.2|9=63|35=0|34=14|49=CLIENT1|52=20130404-05:00:00.475|56=ORDERMATCH|10=212|

8=FIX.4.2|9=63|35=0|34=15|49=CLIENT1|52=20130404-05:00:00.475|56=ORDERMATCH|10=213|

8=FIX.4.2|9=63|35=0|34=16|49=CLIENT1|52=20130404-05:00:00.475|56=ORDERMATCH|10=214|

8=FIX.4.2|9=63|35=0|34=17|49=CLIENT1|52=20130404-05:00:00.475|56=ORDERMATCH|10=215|

8=FIX.4.2|9=63|35=0|34=18|49=CLIENT1|52=20130404-05:00:00.475|56=ORDERMATCH|10=216|

8=FIX.4.2|9=63|35=0|34=19|49=CLIENT1|52=20130404-05:00:00.475|56=ORDERMATCH|10=217|

8=FIX.4.2|9=63|35=0|34=20|49=CLIENT1|52=20130404-05:00:00.475|56=ORDERMATCH|10=209|

8=FIX.4.2|9=63|35=0|34=21|49=CLIENT1|52=20130404-05:00:00.475|56=ORDERMATCH|10=210|

8=FIX.4.2|9=63|35=0|34=22|49=CLIENT1|52=20130404-05:00:00.475|56=ORDERMATCH|10=211|

8=FIX.4.2|9=63|35=0|34=23|49=CLIENT1|52=20130404-05:00:00.475|56=ORDERMATCH|10=212|

8=FIX.4.2|9=63|35=0|34=24|49=CLIENT1|52=20130404-05:00:00.475|56=ORDERMATCH|10=213|

8=FIX.4.2|9=63|35=0|34=25|49=CLIENT1|52=20130404-05:00:00.475|56=ORDERMATCH|10=214|

8=FIX.4.2|9=63|35=0|34=26|49=CLIENT1|52=20130404-05:00:00.475|56=ORDERMATCH|10=215|

8=FIX.4.2|9=63|35=0|34=27|49=CLIENT1|52=20130404-05:00:00.475|56=ORDERMATCH|10=216|

8=FIX.4.2|9=63|35=0|34=28|49=CLIENT1|52=20130404-05:00:00.475|56=ORDERMATCH|10=217|

8=FIX.4.2|9=63|35=0|34=29|49=CLIENT1|52=20130404-05:00:00.475|56=ORDERMATCH|10=218|

8=FIX.4.2|9=63|35=0|34=30|49=CLIENT1|52=20130404-05:00:00.475|56=ORDERMATCH|10=210|

8=FIX.4.2|9=63|35=0|34=31|49=CLIENT1|52=20130404-05:00:00.475|56=ORDERMATCH|10=211|

8=FIX.4.2|9=63|35=0|34=32|49=CLIENT1|52=20130404-05:00:00.475|56=ORDERMATCH|10=212|

8=FIX.4.2|9=63|35=0|34=33|49=CLIENT1|52=20130404-05:00:00.475|56=ORDERMATCH|10=213|

8=FIX.4.2|9=63|35=0|34=34|49=CLIENT1|52=20130404-05:00:00.475|56=ORDERMATCH|10=214|

8=FIX.4.2|9=63|35=0|34=35|49=CLIENT1|52=20130404-05:00:00.475|56=ORDERMATCH|10=215|

8=FIX.4.2|9=63|35=0|34=36|49=CLIENT1|52=20130404-05:00:00.475|56=ORDERMATCH|10=216|

8=FIX.4.2|9=63|35=0|34=37|49=CLIENT1|52=20130404-05:00:00.475|56=ORDERMATCH|10=217|

8=FIX.4.2|9=63|35=0|34=38|49=CLIENT1|52=20130404-05:00:00.475|56=ORDERMATCH|10=218|

8=FIX.4.2|9=63|35=0|34=39|49=CLIENT1|52=20130404-05:00:00.475|56=ORDERMATCH|10=219|

8=FIX.4.2|9=63|35=0|34=40|49=CLIENT1|52=20130404-05:00:00.475|56=ORDERMATCH|10=211|

8=FIX.4.2|9=63|35=0|34=41|49=CLIENT1|52=20130404-05:00:00.475|56=ORDERMATCH|10=212|

8=FIX.4.2|9=63|35=0|34=42|49=CLIENT1|52=20130404-05:00:00.475|56=ORDERMATCH|10=213|

8=FIX.4.2|9=63|35=0|34=43|49=CLIENT1|52=20130404-05:00:00.475|56=ORDERMATCH|10=214|

8=FIX.4.2|9=63|35=0|34=44|49=CLIENT1|52=20130404-05:00:00.475|56=ORDERMATCH|10=215|

8=FIX.4.2|9=63|35=0|34=45|49=CLIENT1|52=20130404-05:00:00.475|56=ORDERMATCH|10=216|

8=FIX.4.2|9=63|35=0|34=46|49=CLIENT1|52=20130404-05:00:00.475|56=ORDERMATCH|10=217|

8=FIX.4.2|9=63|35=0|34=47|49=CLIENT1|52=20130404-05:00:00.475|56=ORDERMATCH|10=218|

8=FIX.4.2|9=63|35=0|34=48|49=CLIENT1|52=20130404-05:00:00.475|56=ORDERMATCH|10=219|

8=FIX.4.2|9=63|35=0|34=49|49=CLIENT1|52=20130404-05:00:00.475|56=ORDERMATCH|10=220|

8=FIX.4.2|9=63|35=0|34=50|49=CLIENT1|52=20130404-05:00:00.475|56=ORDERMATCH|10=212|

8=FIX.4.2|9=63|35=0|34=51|49=CLIENT1|52=20130404-05:00:00.475|56=ORDERMATCH|10=213|

8=FIX.4.2|9=63|35=0|34=52|49=CLIENT1|52=20130404-05:00:00.475|56=ORDERMATCH|10=214|

8=FIX.4.2|9=63|35=0|34=53|49=CLIENT1|52=20130404-05:00:00.475|56=ORDERMATCH|10=215|

8=FIX.4.2|9=63|35=0|34=54|49=CLIENT1|52=20130404-05:00:00.475|56=ORDERMATCH|10=216|

8=FIX.4.2|9=63|35=0|34=55|49=CLIENT1|52=20130404-05:00:00.475|56=ORDERMATCH|10=217|

8=FIX.4.2|9=63|35=0|34=56|49=CLIENT1|52=20130404-05:00:00.475|56=ORDERMATCH|10=218|

8=FIX.4.2|9=63|35=0|34=57|49=CLIENT1|52=20130404-05:00:00.475|56=ORDERMATCH|10=219|

8=FIX.4.2|9=63|35=0|34=58|49=CLIENT1|52=20130404-05:00:00.475|56=ORDERMATCH|10=220|

8=FIX.4.2|9=63|35=0|34=59|49=CLIENT1|52=20130404-05:00:00.475|56=ORDERMATCH|10=221|

8=FIX.4.2|9=63|35=0|34=60|49=CLIENT1|52=20130404-05:00:00.475|56=ORDERMATCH|10=213|

8=FIX.4.2|9=63|35=0|34=61|49=CLIENT1|52=20130404-05:00:00.475|56=ORDERMATCH|10=214|

8=FIX.4.2|9=63|35=0|34=62|49=CLIENT1|52=20130404-05:00:00.475|56=ORDERMATCH|10=215|

8=FIX.4.2|9=63|35=5|34=63|49=CLIENT1|52=20130404-05:00:00.475|56=ORDERMATCH|10=221|