1 8=FIX.4.4|9=71|35=A|34=1|49=CLIENT1|52=20130404-04:59:58.962|56=ORDERMATCH|98=0|108=5|10=183|
0 8=FIX.4.4|9=71|35=A|34=1|49=ORDERMATCH|52=20130404-04:59:58.972|56=CLIENT1|98=0|108=5|10=184|
1 8=FIX.4.4|9=60|35=0|34=2|49=ORDERMATCH|52=20130404-05:00:03.457|56=CLIENT1|10=162|
0 8=FIX.4.4|9=60|35=0|34=2|49=CLIENT1|52=20130404-05:00:03.457|56=ORDERMATCH|10=162|
1 8=FIX.4.4|9=60|35=5|34=3|49=CLIENT1|52=20130404-05:00:05.982|56=ORDERMATCH|10=173|
0 8=FIX.4.4|9=60|35=5|34=3|49=ORDERMATCH|52=20130404-05:00:05.983|56=CLIENT1|10=174|


38 3d 46 49 58 2e 34 2e 34 01 39 3d 37 31 01 33 35 3d 41 01 33 34 3d 31 01 34 39 3d 43 4c 49 45 4e 54 31 01 35 32 3d 32 30 31 33 30 34 30 34 2d 30 34 3a 35 39 3a 35 38 2e 39 36 32 01 35 36 3d 4f 52 44 45 52 4d 41 54 43 48 01 39 38 3d 30 01 31 30 38 3d 35 01 31 30 3d 31 38 33 01
38 3d 46 49 58 2e 34 2e 34 01 39 3d 37 31 01 33 35 3d 41 01 33 34 3d 31 01 34 39 3d 4f 52 44 45 52 4d 41 54 43 48 01 35 32 3d 32 30 31 33 30 34 30 34 2d 30 34 3a 35 39 3a 35 38 2e 39 37 32 01 35 36 3d 43 4c 49 45 4e 54 31 01 39 38 3d 30 01 31 30 38 3d 35 01 31 30 3d 31 38 34 01
38 3d 46 49 58 2e 34 2e 34 01 39 3d 36 30 01 33 35 3d 30 01 33 34 3d 32 01 34 39 3d 4f 52 44 45 52 4d 41 54 43 48 01 35 32 3d 32 30 31 33 30 34 30 34 2d 30 35 3a 30 30 3a 30 33 2e 34 35 37 01 35 36 3d 43 4c 49 45 4e 54 31 01 31 30 3d 31 36 32 01
38 3d 46 49 58 2e 34 2e 34 01 39 3d 36 30 01 33 35 3d 30 01 33 34 3d 32 01 34 39 3d 43 4c 49 45 4e 54 31 01 35 32 3d 32 30 31 33 30 34 30 34 2d 30 35 3a 30 30 3a 30 33 2e 34 35 37 01 35 36 3d 4f 52 44 45 52 4d 41 54 43 48 01 31 30 3d 31 36 32 01
38 3d 46 49 58 2e 34 2e 34 01 39 3d 36 30 01 33 35 3d 35 01 33 34 3d 33 01 34 39 3d 43 4c 49 45 4e 54 31 01 35 32 3d 32 30 31 33 30 34 30 34 2d 30 35 3a 30 30 3a 30 35 2e 39 38 32 01 35 36 3d 4f 52 44 45 52 4d 41 54 43 48 01 31 30 3d 31 37 33 01
38 3d 46 49 58 2e 34 2e 34 01 39 3d 36 30 01 33 35 3d 35 01 33 34 3d 33 01 34 39 3d 4f 52 44 45 52 4d 41 54 43 48 01 35 32 3d 32 30 31 33 30 34 30 34 2d 30 35 3a 30 30 3a 30 35 2e 39 38 33 01 35 36 3d 43 4c 49 45 4e 54 31 01 31 30 3d 31 37 34 01
