1 8=FIX.4.4|9=71|35=A|34=1|49=CLIENT1|52=20130404-04:59:58.962|56=ORDERMATCH|98=0|108=5|10=183|
0 8=FIX.4.4|9=71|35=A|34=1|49=ORDERMATCH|52=20130404-04:59:58.972|56=CLIENT1|98=0|108=5|10=184|
1 8=FIX.4.4|9=60|35=0|34=2|49=ORDERMATCH|52=20130404-05:00:03.457|56=CLIENT1|10=162|
0 8=FIX.4.4|9=60|35=0|34=2|49=CLIENT1|52=20130404-05:00:03.457|56=ORDERMATCH|10=162|
1 8=FIX.4.4|9=60|35=5|34=3|49=CLIENT1|52=20130404-05:00:05.982|56=ORDERMATCH|10=173|
0 8=FIX.4.4|9=60|35=5|34=3|49=ORDERMATCH|52=20130404-05:00:05.983|56=CLIENT1|10=174|
